:020000040800F2
:10000000002200209D010008D51600082D140008CC
:10001000B3150008C5120008B32400080000000052
:1000200000000000000000000000000005010008C2
:10003000C91200080000000049010008D31A000896
:10004000B7010008B7010008B7010008B7010008B0
:10005000B7010008B7010008B7010008B7010008A0
:10006000B7010008B7010008B7010008B701000890
:10007000B7010008B7010008B7010008B701000880
:10008000B7010008B7010008B7010008B701000870
:10009000B7010008B7010008B7010008B701000860
:1000A000B7010008B7010008B7010008B701000850
:1000B0003D1B0008B7010008B7010008B7010008A0
:1000C000B7010008B7010008B7010008B701000830
:1000D000B7010008112100080D220008B70100082F
:1000E000B7010008B7010008B7010008DFF810D019
:1000F00000F018FC00480047E92E0008AFF300802C
:1001000000220020224B19680868B0E8F00F80F345
:100110000988BFF36F8F4FF0000080F311884EF015
:100120000D0E70470000000006480068006880F36C
:10013000088862B661B6BFF34F8FBFF36F8F00DFE1
:1001400000BF00BF08ED00E0EFF30980BFF36F8F41
:100150000F4B1A6820E9F00F106008B54FF0BF0090
:1001600080F31188BFF34F8FBFF36F8F03F036FD1D
:100170004FF0000080F31188BDE808401968086856
:10018000B0E8F00F80F30988BFF36F8F704700BFAE
:10019000B4000020EFF30580704700000648804758
:1001A00006480047FEE7FEE7FEE7FEE7FEE7FEE75C
:1001B000FEE7FEE7FEE7FEE7DD1A0008ED000008B7
:1001C00040EA01039B0703D009E008C9121F08C0D9
:1001D000042AFAD203E011F8013B00F8013B521E59
:1001E000F9D27047F0B480EA0102D40F4200B2EBBA
:1001F000410F02D20246084611464A0042D0C30DC2
:10020000DDB2C1F3C752AD1A202D35DAC1F31601A4
:1002100041F4000204B15242C5F1200602FA06F18F
:100220002A411044B3EBD05F23D0C4B1012DA0EB21
:10023000C35009DCF0BC4FF0004202EAC352DBB20B
:1002400000F5000000F0B3BA400000F1807000EB50
:10025000C350A0F1807040EAD170490009E049081C
:1002600041EAC071A0EBC35000F50000400800EB6C
:10027000C350F0BC00F092BA6142012202EB41018E
:10028000001BF6E7F0BC704781F00041AAE780F060
:100290000040A7E780EA010210B502F000434000E9
:1002A00022D04A001FD0010E01EB1261C0F35600AC
:1002B000C2F3560240F4000042F40002A0FB022008
:1002C00000047F39140400D0401C50EA124001D4CD
:1002D0004000491EC2B20C0604EBD010401C40087E
:1002E000802A02D003E0002010BD20F00100002988
:1002F00000DA0020184310BD2DE9FE4F804681EA48
:100300000300C00F0C46009021F0004123F000458F
:10031000B8EB0200A94105D24046214690461C4652
:100320000B46024623F00040104347D0270DC7F389
:100330000A00C3F30A510290401A019040286BDA78
:10034000C3F3130040F4801B0098924620B10023B1
:10035000D2EB030A63EB0B0B01985946C0F1400244
:10036000504600F0FAF906460D4650465946019AA5
:1003700000F002FA10EB08006141002487EA1152F4
:1003800084EAE7731A4340D0009A62B3019A012AC3
:100390004FEA075215DC001B61EB02014FF00042EF
:1003A00002EA0752CDE90042001C41F580113246B5
:1003B0002B4600F039FA03B0BDE8F08F40462146E5
:1003C000F9E7001B61EB0201001C41F580130018E6
:1003D0005B412018A2F5001747EB030140EAD570F6
:1003E000B6196D4111E06D084FEA360645EAC07551
:1003F0004FEA0752001B61EB0201001C41F580111E
:1004000049084FEA30000019514132462B4603B0EB
:10041000BDE8F04F00F0F9B9009801224000002338
:10042000D0EB020263EBE073009821464FEAE074E0
:10043000B8EB000061EB0401E9E783F000435BE700
:1004400081F0004158E72DE9FE4F81EA030404F0F2
:10045000004421F0004100944FF0000B23F00043D2
:1004600050EA01045ED052EA03045BD0C3F30A549D
:10047000C1F30A552C44A4F2F3340194A0FB0254B6
:10048000C1F3130141F48011C3F3130343F4801348
:1004900001FB024400FB034E840A970A44EA81549C
:1004A00047EA8357A4FB076802958D0A05FB078579
:1004B0004FEA932C04FB0C542705029D4FEA065883
:1004C00047EA1637B5EB08056EEB070C870E920E60
:1004D00047EA811742EA8312A7FB0201B6EB0B0140
:1004E00064EB00042B0D43EA0C335E1844EB1C5004
:1004F000DA465146E7FB0201C5F313044FEA0B331A
:1005000043EA14534FEA0432019C43EA0603A4F180
:100510000C040294009CCDE900B400F085F903B00E
:10052000BDE8F08F00200146F9E72DE9F04D81EAA2
:10053000030404F0004B21F0004514464FF0000A7C
:1005400023F0004150EA050220D054EA01021DD0F8
:10055000C5F30A570246C5F31303C1F31300C1F3F1
:100560000A5640F4801543F48013A7EB0608101BCD
:10057000D64608F2FD3873EB050002D308F10108F6
:1005800001E092185B41B8F1000F03DA0020014648
:10059000BDE8F08D00204FF48011064684460EE041
:1005A000171B73EB050705D3121B63EB050306430B
:1005B0004CEA010C49084FEA300092185B4150EABE
:1005C0000107EDD152EA030012D082EA040083EA67
:1005D0000501084305D0101BAB4106D201220023C0
:1005E00006E000224FF0004302E06FF001025310DA
:1005F0001AEB06004CEB085110EB0A0041EB0B0123
:10060000BDE8F04D00F001B90EB5C10F80EAE07011
:100610000844CA07002140F233438DE80E000A4621
:100620000B4600F001F903B000BD0EB540F23341B6
:1006300002910021CDE900110A460B4600F0F4F8C2
:1006400003B000BD00F0004230F000400AD0C10D00
:1006500001F56071C0F3160042EA0151C20840077B
:100660001143704700200146704701F0004330B449
:1006700021F0004150EA010206D00A0DA2F5607295
:10068000C1F31301002A02DC30BC00207047440F84
:1006900044EAC104C100E01830BC00EBC25000F0D5
:1006A0007DB80000002801DBC0F10040002901DB1B
:1006B000C1F1004181427047002801DBC0F10040D8
:1006C000002901DBC1F100418842704730B50B467B
:1006D000014600202022012409E021FA02F59D4272
:1006E00005D303FA02F5491B04FA02F52844151E46
:1006F000A2F10102F1DC30BD2DE9F05F05460020DA
:1007000092469B4688460646814640241BE0284682
:1007100041464746224600F017F953465A46C01A4A
:10072000914110D311461846224600F016F82D1AB2
:1007300067EB01084F4622460120002100F00DF82A
:1007400017EB00094E41201EA4F10104DFDC4846EE
:1007500031462A464346BDE8F09F202A04DB203A72
:1007600000FA02F1002070479140C2F1200320FA04
:1007700003F3194390407047202A06DBCB17203A39
:1007800041FA02F043EAE07306E041FA02F3D04096
:10079000C2F1200291400843194670470029A8BFC2
:1007A0007047401C490008BF20F00100704710B49A
:1007B000B0FA80FC00FA0CF050EA010404BF10BC4F
:1007C000704749B1CCF1200421FA04F411FA0CF17C
:1007D00018BF012121430843A3EB0C01CB1D4FEAB5
:1007E00000614FEA102042BF002010BC704700EBB0
:1007F000C35010440029A4BF10BC7047401C4900DE
:1008000008BF20F0010010BC704710B5141E73F132
:10081000000408DA401C41F1000192185B411A43C0
:1008200001D120F0010010BD2DE9F04D92469B460C
:1008300011B1B1FA81F202E0B0FA80F220329046B2
:10084000FFF78BFF04460F4640EA0A0041EA0B011E
:1008500053465A46084313D0114653EA010019D0B3
:10086000C8F14002504600F06FF805460E4650466B
:1008700059464246FFF771FF084305D0012004E0C6
:1008800020463946BDE8F08D0020054346EAE07673
:100890002C4337430A986305E40AA0EB08000022C2
:1008A000FD0A44EA47540A3002D500200146E9E730
:1008B000010510196941DDE9084500196941BDE8E4
:1008C000F04DA2E7C1F30A52C1F3130140F2FF3326
:1008D00041F480119A4202DA00200146704740F24A
:1008E00033439A42A2F2334202DC524200F02CB867
:1008F000FFF733BF30B5041E71F1000404DB4FF085
:100900000044404264EB0101141E73F1000405DB56
:100910001C464FF00043524263EB0403994208BF68
:10092000904230BD064C074D06E0E06840F0010300
:1009300094E8070098471034AC42F6D3FFF7DAFB8F
:100940009C440008BC440008202A04DB203A21FA19
:1009500002F00021704721FA02F3D040C2F12002D8
:1009600091400843194670471FB501200390F9E0F4
:100970004FF0000A0DE002A800EB0A0100235A1E06
:100980007948006803F0F2F903900AF1010000F0E1
:10099000FF0ABAF1030FEEDB0398012802D073A01F
:1009A00003F080F99DF8091075A001F085FD9DF810
:1009B000080020BB78A003F075F97948006803F0BF
:1009C000A7F87848006803F0A3F80020764908806B
:1009D00048800021754801F028FB0021734801F090
:1009E00026FB00207249086072490860724908605D
:1009F000724908607248006803F08AF8B2E09DF816
:100A00000800012845D19DF8090018B96DA001F032
:100A100053FDA7E09DF80900642190FBF1F201FB72
:100A2000120B5846FFF7F0FD6D4A6E4BCDE9000101
:100A3000FFF709FD06460F469DF80900642190FB6B
:100A4000F1FB5846FFF7E0FD804632463B46FFF794
:100A500053FC0446FFF709FE574908600846006842
:100A60005649086054480068FFF7ECFD04462246EA
:100A70000B465DA001F020FD4948006802F0BAFF76
:100A80004848006802F0B6FF4D48006802F0B2FF27
:100A900068E09DF80800022864D19DF809006421EF
:100AA00090FBF1F201FB120B5846FFF7ADFD064635
:100AB0004B4A4C4BFFF7C7FCCDE900019DF80900FC
:100AC000642190FBF1F63046FFF79EFD0446DDE918
:100AD0000023FFF711FC8046FFF7C7FD3649086089
:100AE0009DF80A00642190FBF1F201FB120B5846BD
:100AF000FFF78AFD06463A4A3A4BFFF7A4FC044644
:100B00000D469DF80A00642190FBF1F63046FFF790
:100B10007BFD804622462B46FFF7EEFBCDE9000128
:100B2000FFF7A3FD2549086008460068FFF78AFD26
:100B300006460F4620480068FFF784FD044622461B
:100B40000B4630A0CDE9006701F0B6FC1448006800
:100B500002F050FF1348006802F04CFF184800688C
:100B600002F048FF04E7000030000020C3FCC1EEA3
:100B7000CFFBCFA2BDD3CAD5CAA7B0DC0D0A0000F7
:100B8000B3C9B9A6BDD3CAD5BFD8D6C6C3FCC1EEBA
:100B9000A3BA25640D0A0000CDA3B3B57E0D0A00EB
:100BA0001000002014000020580000200004004025
:100BB0003C000020400000204C000020500000209D
:100BC00008000020BFAAB3B5CAA7B0DCA3ACCBD93C
:100BD000B6C8D0E8B4F3D3DA307E0D0A00000000C6
:100BE0007B14AE47E17A843FBFAAB3B5A3A1C4BFCB
:100BF000B1EAB3B5CBD9A3BA252E326C666D2F738B
:100C00000D0A0000B5F7CBD9B3C9B9A67ED7F3D387
:100C1000D2B3B5C2D6C4BFB1EAB3B5CBD9CEAAA3BD
:100C2000BA252E326C666D2F732020252E326C660D
:100C30006D2F730D0A0000000EB502F073FD7F49A1
:100C4000012003F066F87E4908600846006818B184
:100C50007CA001F031FC02E082A001F02DFC874A6B
:100C600000214FF47A7003F043F885490860084684
:100C7000006818B183A001F01FFC02E08AA001F017
:100C80001BFC924A00214FF47A7003F031F890492E
:100C900008600846006818B18EA001F00DFC02E063
:100CA00095A001F009FC00209C4B9D4A0121009079
:100CB000022003F043F89B4908600846006818B119
:100CC00099A001F0F9FB02E09DA001F0F5FB0020E6
:100CD000A14BA24A01210090032003F02FF8A04964
:100CE00008600846006818B19EA001F0E5FB02E02C
:100CF000A4A001F0E1FBAB48AB4904220023CDE9FD
:100D0000002102908022A9A1AB4803F01BFAAB4955
:100D100008600846006818B1A9A001F0CDFB02E008
:100D2000ADA001F0C9FBB248B24904220023CDE9CD
:100D3000002102908022B0A1B24803F003FAB24928
:100D400008600846006818B1B0A001F0B5FB02E0E9
:100D5000B5A001F0B1FBBB48BB4904220023CDE99B
:100D6000002102908022B9A1BE4803F0EBF9BE49F0
:100D700008600846006818B1BCA001F09DFB02E0C5
:100D8000C4A001F099FBCD48CD4904220023CDE950
:100D9000002102908022CBA1CF4803F0D3F9CF49A4
:100DA00008600846006818B1CDA001F085FB02E09C
:100DB000D4A001F081FBDC48DC4904220023CDE90A
:100DC000002102908022DAA1DE4803F0BBF9DE495F
:100DD00008600846006818B1DCA001F06DFB02E075
:100DE000E3A001F069FBEB48EB4904220023CDE9C5
:100DF000002102908022E9A1ED4803F0A3F9ED491A
:100E000008600846006818B1EBA001F055FB02E04D
:100E1000F1A001F051FBF848F84904220023CDE984
:100E2000002102908022F6A1FA4803F08BF9FA49DA
:100E300008600846006800B1F0E1F3E140180020C6
:100E400020000020B4AEBFDAB4F2D3A1BBA5B3E258
:100E5000D0C5BAC5C1BFB4B4BDA8B3C9B9A67E0DCB
:100E60000A000000B4AEBFDAB4F2D3A1BBA5B3E26E
:100E7000B4B4BDA8CAA7B0DC7E0D0A008818002053
:100E8000240000207653656E736F724C436F756E4D
:100E90007420BCC6CAFDD0C5BAC5C1BFB4B4BDA814
:100EA000B3C9B9A6210D0A007653656E736F724CF3
:100EB000436F756E7420BCC6CAFDD0C5BAC5C1BF2C
:100EC000B4B4BDA8CAA7B0DC210D0A00D018002018
:100ED000280000207653656E736F7252436F756EF3
:100EE0007420BCC6CAFDD0C5BAC5C1BFB4B4BDA8C4
:100EF000B3C9B9A6210D0A007653656E736F72529D
:100F0000436F756E7420BCC6CAFDD0C5BAC5C1BFDB
:100F1000B4B4BDA8CAA7B0DC210D0A00181900207E
:100F2000340000202C0000205265706C616365560F
:100F3000B6D3C1D0B4B4BDA8B3C9B9A6210D0A00B7
:100F40005265706C61636556B6D3C1D0B4B4BDA8A8
:100F5000CAA7B0DC210D0A0060190020360000206D
:100F600030000020776972656C657373436F6D6D37
:100F7000616E64B6D3C1D0B4B4BDA8B3C9B9A6215B
:100F80000D0A0000776972656C657373436F6D6D50
:100F9000616E64B6D3C1D0B4B4BDA8CAA7B0DC2119
:100FA0000D0A0000F4150020A00700204C45445F06
:100FB0005461736B00000000A514000804000020B9
:100FC0004C45445F5461736BC8CECEF1B4B4BDA838
:100FD000B3C9B9A6210D0A004C45445F5461736B37
:100FE000C8CECEF1B4B4BDA8CAA7B0DC210D0A00AA
:100FF00048160020A00900204D6F746F725F546185
:10100000736B0000B9150008080000204D6F746F65
:10101000725F5461736BC8CECEF1B4B4BDA8B3C9CE
:10102000B9A6210D0A0000004D6F746F725F546104
:10103000736BC8CECEF1B4B4BDA8CAA7B0DC210D85
:101040000A0000009C160020A00B00204C6973745D
:10105000656E696E6753656E736F72735F5461730B
:101060006B000000D11400080C0000204C69737460
:10107000656E696E6753656E736F72735F546173EB
:101080006BC8CECEF1B4B4BDA8B3C9B9A6210D0AC0
:10109000000000004C697374656E696E6753656E7D
:1010A000736F72735F5461736BC8CECEF1B4B4BD0D
:1010B000A8CAA7B0DC210D0A00000000F01600202D
:1010C000A00D00206C43616C6356656C6F6369749E
:1010D000795F5461736B00002D2E00081000002012
:1010E0006C43616C6356656C6F636974795F5461BE
:1010F000736BC8CECEF1B4B4BDA8B3C9B9A6210DE7
:101100000A0000006C43616C6356656C6F63697420
:10111000795F5461736BC8CECEF1B4B4BDA8CAA7D1
:10112000B0DC210D0A00000044170020A00F0020B1
:101130007243616C6356656C6F636974795F546167
:10114000736B000095350008140000207243616C39
:101150006356656C6F636974795F5461736BC8CE55
:10116000CEF1B4B4BDA8B3C9B9A6210D0A000000E0
:101170007243616C6356656C6F636974795F546127
:10118000736BC8CECEF1B4B4BDA8CAA7B0DC210D34
:101190000A00000098170020A0110020416E616C29
:1011A000797365436F6D6D616E645F5461736B003D
:1011B0006909000818000020416E616C797365436D
:1011C0006F6D6D616E64C8CECEF1B4B4BDA8B3C905
:1011D000B9A6210D0A000000416E616C7973654368
:1011E0006F6D6D616E64C8CECEF1B4B4BDA8CAA7F0
:1011F000B0DC210D0A000000EC170020A013002035
:1012000050494443616C63756C61746F725F5461E3
:10121000736B00005D1700081C0000200EA001F099
:101220004BF902E014A001F047F91B48006802F0F6
:101230000DFB1A48006802F06BFC1948006802F0C8
:1012400067FC1848006802F063FC17A001F034F94D
:1012500002F07AFA0EBD000050494443616C637598
:101260006C61746F72C8CECEF1B4B4BDA8B3C9B905
:10127000A6210D0A0000000050494443616C6375CB
:101280006C61746F72C8CECEF1B4B4BDA8CAA7B0F9
:10129000DC210D0A000000000000002008000020F2
:1012A00010000020140000203D3D3D3D3D3DBDF8B7
:1012B000C8EB4672656552544F53213D3D3D3D3D5F
:1012C0003D0D0A0000BFFEE770472DE9F0470546D7
:1012D0000E46144621464FF07E50FEF7D5FF81465C
:1012E0003146FEF7D7FF074621462846FEF7D2FFD4
:1012F00080463946FEF776FF05462846BDE8F0876A
:101300002DE9F0410246002500260020002300249C
:10131000002791F803C00CF00F0591F803C00CF002
:10132000100CBCF1000F03D091F802C04CEA050587
:1013300091F800C0BCF1000F31D0146800202BE000
:101340004FF0010C0CFA00F3B1F800C00CEA0306F0
:101350009E4220D183004FF00F0C0CFA03F7BC43E0
:1013600005FA03FC4CEA040491F803C0BCF1280F11
:1013700006D14FF0010C0CFA00FCC2F814C00AE0D0
:1013800091F803C0BCF1480F05D14FF0010C0CFAE5
:1013900000FCC2F810C0401C0828D1D31460B1F87A
:1013A00000C0BCF1FF0F34DD546800202EE000F1D6
:1013B000080C4FF0010808FA0CF3B1F800C00CEA71
:1013C00003069E4221D183004FF00F0C0CFA03F765
:1013D000BC4305FA03FC4CEA040491F803C0BCF1D9
:1013E000280F05D100F1080C08FA0CF8C2F8148097
:1013F00091F803C0BCF1480F07D100F1080C4FF081
:10140000010808FA0CF8C2F81080401C0828CED356
:101410005460BDE8F0810246002093680B400BB198
:10142000012000E0002070470161704700BFFEE727
:1014300008B50121082000F02DFA4FF48050ADF8D6
:10144000000048208DF8030069460248FFF758FF66
:1014500008BD0000000C014010B5FFF7E9FF10BD0A
:1014600008B50121082000F015FA4FF40070ADF81E
:10147000000010208DF8030003208DF8020069465B
:101480000448FFF73DFF4FF400710248FFF7CCFF1F
:1014900008BD0000000C014010B5FFF7E1FF00F0AF
:1014A0001BFE10BD0EE00020074908604FF4FA70E3
:1014B00002F0B2F901200549C1F8B4014FF4FA7005
:1014C00002F0AAF9EFE70000B40122420000224234
:1014D00001240025002635E010211B48FFF79BFF63
:1014E000A84214D0012D0DD100231A4619461748E1
:1014F000006802F029FD0446012C03D0214614A007
:1015000002F0D0FB0DB9012000E0002005462021AB
:101510000D48FFF780FFB04214D0012E0DD10023FB
:101520001A4619461448006802F00EFD0446012CC4
:1015300003D0214611A002F0B5FB0EB9012000E056
:1015400000200646C8E700000008014024000020F3
:10155000D7F3B2E2CBD9C6F7D0C5BAC5C1BFB8B3CD
:10156000D6B5CAA7B0DCA3ACB4EDCEF3C2EBCEAA1D
:10157000A3BA25640D0A000028000020D3D2B2E2ED
:10158000CBD9C6F7D0C5BAC5C1BFB8B3D6B5CAA7FF
:10159000B0DCA3ACB4EDCEF3C2EBCEAAA3BA256403
:1015A0000D0A000010B541F61F41632000F0F4FB66
:1015B00010BD00BFFEE700001CB56AE0012002F08C
:1015C0002BF93448016834480068FFF76BF80ED2F5
:1015D0003248008800280ADD30480088401E2F4924
:1015E0000880084601882E4800F01FFD14E02948B5
:1015F000016829480068FFF75FF80DD22748008886
:10160000642809DA25480088401C244908800846D7
:101610000188234800F009FD22480168224800683B
:10162000FFF740F80ED21D48408800280ADD1B480D
:101630004088401E1949488008464188184800F0F3
:10164000F6FC14E01748016817480068FFF734F803
:101650000DD212484088642809DA10484088401C9E
:101660000E494880084641880D4800F0E0FC0D48CE
:101670000068FEF7E7FF04460D4606480068FEF7DF
:10168000E1FF064632460B4608A0CDE9004500F0D2
:1016900013FF93E73C000020440000205800002086
:1016A000000400404000002048000020D7F3C2D6CC
:1016B000CBD9B6C8CEAA3A256C666D2F732020D33D
:1016C000D2C2D6CBD9B6C8CEAA3A256C666D2F73D6
:1016D0000D0A00007047000070B5002100230F22A2
:1016E000C47804B3154C246804F4E064C4F5E064E1
:1016F000210AC1F10403CA40447804FA03F1847852
:101700001440214309010E4C0678A155047804F0D9
:101710001F050124AC4005786D11AD0005F1E025F1
:10172000C5F8004109E0047804F01F050124AC402D
:10173000044D0678761145F8264070BD0CED00E0AA
:1017400000E400E080E100E002490143024A116048
:10175000704700000000FA050CED00E04FF07C54EB
:101760000025002632462946204600F06FF88146C3
:1017700032462946204600F069F8074633E01A4809
:1017800001681A480068FEF78DFF12D016480168FC
:1017900016480068FEF778FD82465146484600F03C
:1017A0002BF88046104801684046FEF71BFD0E49A5
:1017B00008600F4801680F480068FEF773FF12D0F9
:1017C0000B4801680B480068FEF75EFD82465146F3
:1017D000384600F011F88046054801684046FEF79B
:1017E00001FD03490860CAE7440000204C000020C6
:1017F00048000020500000202DE9F04704460D4627
:1018000065616169E068FEF7EDFCE060D4E9041011
:10181000FEF73AFD8146A168FEF73CFD0746E16808
:101820006068FEF737FD814661692068FEF732FD8A
:1018300082464946FEF7D6FC80463946FEF7D2FC82
:101840000646606920613046BDE8F0872DE9F04129
:1018500005460F461646182001F082FB0446256017
:101860006760A6600020E060206160612046BDE8FE
:10187000F081000029B1064AD2690243044BDA61C3
:1018800004E0034AD2698243014BDA6170470000E9
:101890000010024029B1064A92690243044B9A6142
:1018A00004E0034A92698243014B9A617047000049
:1018B0000010024030B500210022002400232D4DED
:1018C0006D6805F00C0121B1042905D0082923D148
:1018D00005E0294D056022E0274D05601FE0254DFC
:1018E0006D6805F47012234D6D6805F4803402258F
:1018F00005EB92421CB9214D554305600BE01D4D8F
:101900006D6805F400351DB11C4D5543056002E0BE
:10191000194D5543056002E0174D056000BF00BF3B
:10192000144D6D6805F0F0010909154D6B5C0568F3
:10193000DD4045600F4D6D6805F4E061090A104D0A
:101940006B5C4568DD4085600A4D6D6805F460514B
:10195000C90A0B4D6B5C4568DD40C560054D6D687F
:1019600005F44041890B074D6B5CC568B5FBF3F589
:10197000056130BD0010024000127A0000093D00F0
:10198000830000209300002010B500F001F810BD86
:101990000CB50020019000903348006840F480307E
:1019A0003149086000BF3048006800F40030009002
:1019B0000198401C0190009818B90198B0F5A06FEB
:1019C000F1D12948006800F4003010B101200090E6
:1019D00001E0002000900098012843D123480068CE
:1019E00040F01000214908600846006820F003001C
:1019F00008600846006840F0020008601A48406825
:101A0000194948600846406848600846406840F404
:101A1000806048600846406820F47C1048600846B2
:101A2000406840F4E81048600846006840F0807064
:101A3000086000BF0C48006800F000700028F9D072
:101A40000948406820F0030007494860084640689C
:101A500040F00200486000BF0348406800F00C00FE
:101A60000828F9D10CBD00000010024000200240FF
:101A700010B54FF44070FFF767FE01F0A7F9FFF7CC
:101A800091FDFFF709FD4FF4E13000F069FBFFF72E
:101A9000E3FC41F61F41092000F050F901F0B6FEC9
:101AA0004FF4E13000F0DAFB10BD042808D14FF00C
:101AB000E021096941F004014FF0E022116107E0E3
:101AC0004FF0E021096921F004014FF0E02211619B
:101AD000704710B502F0CCF810BD000010B51348E7
:101AE000006840F00100114908600846406810494C
:101AF00008400E494860084600680E4908400B49F6
:101B000008600846006820F48020086008464068A5
:101B100020F4FE0048604FF41F008860FFF734FF98
:101B20004FF000600449086010BD00000010024042
:101B30000000FFF8FFFFF6FE08ED00E070B501269B
:101B40000121880700F0A1F901287DD15B480088B8
:101B5000401C5A4908805A480088401C584908804F
:101B600056480088B0F5FA7F02D100205549086038
:101B700053480088B0F5FA7F02D10020524908602E
:101B8000524800780A283DD151A000F095FC00256C
:101B900006E05548415D55A000F08EFC681CC5B2BA
:101BA000544800888542F4DB53A000F085FC4E4881
:101BB0000078C12820D14C484078C2281CD14A481E
:101BC0008078C32818D14848C078C42814D100248C
:101BD0000BE0201D444A811800231A46474800683C
:101BE00002F03EFA0646601CC4B2032CF1DB012E63
:101BF00002D043A000F060FC00203E490880FF2096
:101C000032490870444800780A283FD143A000F0C8
:101C100053FC002506E04748415D34A000F04CFC31
:101C2000681CC5B2444800888542F4DB32A000F04D
:101C300043FC40480078C12822D13E484078C22861
:101C40001ED13C48807800E036E0C32818D13948DE
:101C5000C078C42814D100240BE0201D354A811817
:101C600000231A462548006802F0FAF90646601C6F
:101C7000C4B2032CF1DB012E02D021A000F01CFC29
:101C800000202D490880FF20234908700F48007864
:101C90000A2804DA0D480078401C0C4908701E48D8
:101CA00000780A2804DA1C480078401C1A49087099
:101CB0000121880700F0DAF870BD00005400002010
:101CC000560000203C000020400000207E00002044
:101CD00055736172743120526563697665206F7641
:101CE00065727E0D0A000000A8190020256C58209E
:101CF000000000007C0000200D0A000030000020E1
:101D0000BFD8D6C6C3FCC1EECFFBCFA2B7A2CBCD06
:101D1000CAA7B0DC00000000820000205573617289
:101D2000743220526563697665206F7665727E0D28
:101D30000A000000701A0020800000207FB50446D1
:101D40000D4601210846FFF795FDADF8045000202F
:101D5000ADF80600ADF80840ADF80A0001A94FF053
:101D6000804000F067F901221146900700F09EF8CC
:101D70001C208DF8000002208DF8010003208DF852
:101D8000020001208DF803006846FFF7A5FC012141
:101D9000880700F06EF87FBD30B589B004460D4667
:101DA00001210220FFF766FD01210D20FFF772FDE2
:101DB000C020ADF8200018208DF8230003208DF8F6
:101DC000220008A92148FFF79BFAADF81450002023
:101DD000ADF81600ADF81840ADF81A0005A91C487A
:101DE00000F028F96020ADF804000120ADF80600ED
:101DF0000020ADF80C0001A9154800F061F8602042
:101E0000ADF804000120ADF806000020ADF80C008C
:101E100001A90F4800F0AAF808210D4800F09CF82D
:101E200008210B4800F0F4F80121094800F012F8ED
:101E30000021074800F0F9F80021054800F0F7F804
:101E40000121034800F015F809B030BD0008014039
:101E50000004004021B1028842F08002028004E0C8
:101E600002884FF67F731A4002807047CA4302828D
:101E7000704721B1028842F00102028004E002882A
:101E80004FF6FE731A400280704730B502460020BC
:101E900000230024158A05EA0103958905EA010457
:101EA00013B10CB1012000E0002030BD1AB18389CC
:101EB0000B43838102E083898B4383817047000059
:101EC00070B5002400220023058C4FF6FE763540C5
:101ED0000584028C8388048B4FF68F752C40B51EC9
:101EE0002C400D882C43751E2A400D892A434D88AD
:101EF0002A43144DA8420BD0134DA84208D0134DCD
:101F0000A84205D0124DA84202D0124DA84213D1CA
:101F10004FF6F7752A404D892A434FF6FB752A4044
:101F20008D882A434FF6FF652B404FF6FF552B4017
:101F30008D892B43CD892B4383800483CD8885866F
:101F4000028470BD002C014000340140004001407B
:101F500000440140004801400A460021018B4FF631
:101F6000F7731940114301837047000070B50024D6
:101F700000220023058C4FF6EF7635400584028C55
:101F80008388048B48F6FF752C404FF6FF452C40A4
:101F90000D884FF6FF7606EA05252C434FF6DF75D0
:101FA0002A400D8906EA05152A434D8806EA0515DB
:101FB0002A43154DA84202D0144DA8421DD14FF618
:101FC0007F752A404D894FF6FF7606EA05152A43AC
:101FD0004FF6BF752A408D8806EA05152A434FF64D
:101FE000FF352B404FF2FF752B408D8906EA8505A2
:101FF0002B43CD8906EA85052B4383800483CD8856
:102000000587028470BD0000002C014000340140AF
:102010000A460021018B4FF2FF7319404FF6FF7300
:1020200003EA0223194301837047818670470187C1
:1020300070470000002202881D4B98420ED01D4BB5
:1020400098420BD0B0F1804F08D01B4B984205D07E
:102050001A4B984202D01A4B984204D14FF68F7314
:102060001A404B881A43174B984207D0164B984298
:1020700004D04FF6FF431A40CB881A4302808B8866
:1020800083850B8803850A4B98420BD0094B9842F5
:1020900008D00E4B984205D00D4B984202D00D4B04
:1020A000984201D10B7A0386012383827047000096
:1020B000002C0140003401400004004000080040B2
:1020C000000C00400010004000140040004001409F
:1020D000004401400048014008B501211020FFF7ED
:1020E000D9FB4FF40050ADF8000010208DF803002C
:1020F00003208DF8020069460448FFF701F94FF408
:1021000000510248FFF790F908BD0000001001409F
:1021100010B540F225510E4800F00BF9B0B10D4852
:102120000088C8280FDA00200B490870084800F022
:10213000BBF90A49074A1288885406480088401C9F
:102140000449088002E000200249088010BD000018
:10215000003801407C0000207E000020A8190020EB
:1021600010B586B00446012144F20400FFF792FB4B
:102170004FF40070ADF8140003208DF816001820FD
:102180008DF8170005A91F48FFF7BAF84FF48060D3
:10219000ADF8140004208DF8170005A91948FFF7C1
:1021A000AFF801940020ADF80800ADF80A00ADF8D2
:1021B0000C00ADF810000C20ADF80E0001A912487B
:1021C00000F006F90121104800F0A7F825208DF84D
:1021D000000001208DF8010003208DF8020001208D
:1021E0008DF803006846FFF777FA4021064800F0B3
:1021F0008BF8012240F22551034800F0C4F806B0E4
:1022000010BD0000000801400038014010B540F248
:1022100025510E4800F08DF8B0B10D480088C8284F
:102220000FDA00200B490870084800F03DF90A4910
:10223000074A1288885406480088401C04490880D0
:1022400002E000200249088010BD00000044004068
:102250008000002082000020701A002010B586B097
:10226000044601214804FFF705FB01210420FFF784
:1022700011FB0420ADF8140003208DF8160018207F
:102280008DF8170005A91E48FFF73AF80820ADF8A9
:10229000140004208DF8170005A91948FFF730F83D
:1022A00001940020ADF80800ADF80A00ADF80C006C
:1022B000ADF810000C20ADF80E0001A9114800F097
:1022C00087F801210F4800F028F826208DF800003B
:1022D00000208DF8010002208DF8020001208DF809
:1022E00003006846FFF7F8F94021064800F00CF8B3
:1022F000012240F22551034800F045F806B010BD18
:10230000000801400044004001F40072B2F5007F73
:1023100000D100BFCA430280704721B1828942F4D4
:102320000052828104E082894DF6FF731A40828157
:10233000704770B50246002400230025002040F6B7
:102340006A16B14200D100BFC1F3421501F01F036C
:10235000012606FA03F3012D02D19689334006E0E7
:10236000022D02D1168A334001E0968A33400C12C6
:10237000012606FA04F41688344013B10CB101208A
:1023800000E0002070BDF0B50346002400260025C3
:10239000002040F66A17B94200D100BF1846C1F3C9
:1023A000421401F01F06012707FA06F5012C01D19E
:1023B0000C3004E0022C01D1103000E014301AB1CE
:1023C00007682F43076002E00768AF430760F0BD6E
:1023D0002DE9F04786B005460E460024A24600BF10
:1023E000A1460027B08900B100BF2F462C8A4CF6C9
:1023F000FF700440F08804432C82AC894EF6F31041
:102400000440B08831890843718908430443AC8192
:10241000AC8A4FF6FF400440B0890443AC8201A867
:10242000FFF748FA1F48874202D1DDF810A001E00B
:10243000DDF80CA0A88900F4004040B10AEBCA0006
:1024400000EB0A1031684900B0FBF1F807E00AEB35
:10245000CA0000EB0A1031688900B0FBF1F8642073
:10246000B8FBF0F004012009642101FB1089A88960
:1024700000F4004040B1322000EBC900B0FBF1F0A5
:1024800000F00700044308E0322000EB091064214B
:10249000B0FBF1F000F00F0004432C8106B0BDE862
:1024A000F08700000038014001468888C0F308002A
:1024B000704700BFFEE700000FB4054B10B503A93D
:1024C000044A029800F0F4F810BC5DF814FB000018
:1024D000112E0008780000207CB50C001D46164621
:1024E000014601D0601E00E00020CDE90010064B3F
:1024F0006A462946304600F0DBF8002C02D0009AEC
:10250000002111707CBD0000B72D000802E008C852
:10251000121F08C1002AFAD170477047002001E05D
:1025200001C1121F002AFBD1704700002DE9FF5F97
:1025300082B00021DDE90430020DDDF840B0034334
:1025400018D044F61050A2F2FF32424315141198ED
:1025500001281FD0A5EB0B00401C5FEA000A4FF0DA
:1025600000064E4FDFF83891B046504615D5CAF1F7
:10257000000413E0119801244AA3012801D16FEA55
:102580000B010298119AC0E90031C0E9024206B07D
:10259000BDE8F09FCBF10000DFE704460021404A90
:1025A000491842EB0450CDE9001012E0E00707D0D3
:1025B00032463B4640464946FDF745FF8046894640
:1025C00032463B4610461946FDF73DFF06460F468C
:1025D0006410002CEAD1DDE90401DDE90023BAF141
:1025E000000F06DAFDF72FFF42464B46FDF72BFFA3
:1025F00005E0FDF79AFF42464B46FDF796FF04467D
:102600000E460022284BFEF775F903D84FF0FF3035
:10261000014607E00022254B20463146FDF76CFEBF
:10262000FEF750F9102409E0002C0ADB0A220023EF
:10263000FEF762F8039B30321A55641E50EA01021D
:10264000F2D1641C039AC4F111031444119A012AB3
:1026500003D0012208430DD10AE0084304D0002032
:102660004FF0110B119072E7A3EB0B056D1E0DE0FF
:102670005B4504DD4FF0000205F1010504E003DADB
:102680004FF00002A5F10105002AECD00298119943
:10269000C0E90231C0E9004579E7000000001440BC
:1026A0000000F03F300000000000F0430000E03F79
:1026B0002DE9FF4F95B09A46884606460025EEE183
:1026C000252877D100242746F94A0121039400E008
:1026D000044316F8013F203B01FA03F01042F7D102
:1026E00030782A2811D06FF02F033078A0F1300213
:1026F000092A16D8039A44F0020402EB820203EB83
:1027000042021044761C0390EFE758F8042B039222
:10271000002A03DA504244F40054039044F00204C7
:10272000761C30782E2816D116F8010F44F00404D8
:102730002A280DD06FF02F023078A0F13003092B3A
:1027400009D807EB870302EB4303C718761CF3E7AE
:1027500058F8047B761C30786C280FD006DC4C28A7
:1027600017D068280DD06A2814D104E0742810D03E
:102770007A280FD10DE044F400140AE044F48014E8
:1027800001E044F440147278824202D104F58014CE
:10279000761C761C307866280BD013DC582877D04E
:1027A00009DC002875D04528F6D04628F4D0472803
:1027B0001AD193E118E0632835D0642879D06528D0
:1027C00012D18BE1702873D008DC6728F1D069281A
:1027D0006FD06E280DD06F2806D1ACE073282CD0B6
:1027E000752874D0782853D05246179990476D1C9D
:1027F00054E1C4F30250022809D003280DD0D8F8C0
:10280000001004280DD00D6008F1040846E1D8F846
:102810000010EA17C1E90052F6E7D8F800100D8061
:10282000F2E70D70F0E718F8041B8DF80010002097
:102830008DF80100EB46012003E058F804BB4FF08F
:10284000FF3061074FF0000102D40DE009F10101F2
:102850008946B9420FDA8145F8DB1BF809100029D7
:10286000F4D108E009F1010189468142FADB1BF845
:1028700009100029F6D103985346A0EB0907214619
:102880003846179A00F080FA284400EB090507E063
:1028900044E008E10DE01BF8010B52461799904700
:1028A000B9F10109F7D2534621463846179AF2E0AA
:1028B00039E00A21C4F302524FF0000B0091022AC2
:1028C00006D058F8040BC117032A09D00AE023E008
:1028D00008F1070020F00702F2E80201904605E047
:1028E00000B2C117042A01D140B2C117002906DA8B
:1028F0000A460021404261EB02012D2202E022053E
:1029000004D52B228DF80420012203E0E20701D038
:102910002022F7E7914657E00A2100E010214FF00E
:10292000000B00910BE010214FF0000B44F0040469
:102930000827009103E008204FF0000B0090C4F33B
:102940000252022A05D058F8040B0021032A08D0AD
:1029500008E008F1070020F00702F2E802019046C3
:1029600003E080B2042A00D1C0B24FF00009220770
:102970002AD53278702A07D0DDF800C08CF0100C10
:102980005CEA0B0C05D00EE040228DF804200122F9
:1029900008E050EA010306D030238DF804308DF8AA
:1029A000052002229146009B83F0080353EA0B03A3
:1029B0000AD150EA010201D1620705D530228DF813
:1029C00004204FF001097F1E3278582A04D039A222
:1029D0000C920CAA02920BE03BA2F9E75B46009A2C
:1029E000FDF78AFE0C9B9B5C029A521E02921370AA
:1029F00050EA0102F2D1029804A9081A00F1200B52
:102A0000600702D524F4803400E001275F4502DD31
:102A1000A7EB0B0000E0002000EB0B0100900398F7
:102A20004944401A0390E00306D453462146179ABE
:102A3000039800F0A9F90544002706E001A85246D2
:102A4000C05D179990476D1C7F1C4F45F6DBE00376
:102A50000CD553462146179A039800F095F9054482
:102A600004E030205246179990476D1C0099481E8B
:102A700000900029F5DC08E002980299524600789F
:102A8000491C0291179990476D1CBBF10001ABF1F5
:102A9000010BF1DC5BE100F065F90544761C307850
:102AA00000287FF40DAE19B02846BDE8F08F000075
:102AB0000928010030313233343536373839616214
:102AC00063646566000000003031323334353637D8
:102AD000383941424344454600000000600700D4B5
:102AE000062708F1070020F00700F0E802238046DF
:102AF00003F0004C5FEA0C0001D097A009E020052C
:102B000001D596A005E0E00701D095A001E0AFF265
:102B10004C001390307823F0004365280CD006DC7D
:102B2000452809D046281DD047287FD13BE066289C
:102B300018D067287AD136E00021112F01DB11204F
:102B400000E0781CCDE9000104A90CA8FFF7EEFC19
:102B5000DDE90D010C9A4FF0000B07F1010910920D
:102B600000914EE04FF000400097CDE9011004A91C
:102B70000CA8FFF7DBFCDDE90D020C9B0F994FF071
:102B8000000B91461093009211B9791C00EB0109DA
:102B9000B7EB090003D4C0F1FF3B07F10109A9EB32
:102BA0000700019042E0012F00DA01270021112FD8
:102BB00001DD112000E03846CDE9000104A90CA890
:102BC000FFF7B4FCDDE90D010C9A00914FF0000B0A
:102BD000B946109221070FD4009A4A4503DA91466C
:102BE00001E0A9F10109B9F1010F05DD109AA9F180
:102BF0000101515C3029F4D0B84202DA10F1040F1F
:102C000003DA0121CDE9011010E0002803DC834440
:102C1000A9EB000102E0411C494500DD8946A0EB1B
:102C20000B00401C01904FF000400290200705D49B
:102C30000198484502DB4FF0FF30019000208DF8ED
:102C40004B0002980DF14B07B0F1004F25D0022048
:102C50000C902B200D90029800280CDA4042029034
:102C60002D200D9007E00A210298FDF72FFD30314D
:102C7000029007F8011D0C99481E0C900029F2DC07
:102C800002980028EFD1791E0D980870307800F076
:102C9000200040F0450007F8020D11A8C01BC01D20
:102CA00002901398007800B1012000EB090101980F
:102CB00001EBE071029801440398401A401E039012
:102CC000E00306D453462146179A039800F05CF8B7
:102CD00005441398007818B15246179990476D1C17
:102CE000E00323D553462146179A039800F04CF889
:102CF00005441BE0BBF1000F07DB0098584504DDDD
:102D00001098179910F80B0001E0179930205246DF
:102D1000904701980BF1010B401E05F10105019050
:102D200004D12E205246179990476D1CB9F100012D
:102D3000A9F10109DEDC05E017F8010B52461799ED
:102D400090476D1C0299481E02900029F4DC5346FE
:102D50002146179A03989EE62D0000002B000000E4
:102D6000200000002DE9F041044600251E461746CC
:102D7000880404D405E039462020B0476D1C641E49
:102D8000F9D52846BDE8F0812DE9F041044600253B
:102D90001E469046C80301D5302700E0202788044E
:102DA00004D505E041463846B0476D1C641EF9D590
:102DB0002846BDE8F0814A68002A06D00A68531CFC
:102DC0000B6010704868401E4860704710B56FF087
:102DD0000400FEF76AFE0A4800680A49B0FBF1F0F9
:102DE000094908700846007800EB4001C1EBC010AB
:102DF0004FF6FF7101EAC0000449088010BD0000D1
:102E00006000002000127A0074000020760000208C
:102E100000BF054A128802F04002002AF9D0C2B26F
:102E2000014B1B1D1A8070470038014086B04FF0DF
:102E3000000A4AE000235A1E19462448006800F0A0
:102E400095FF2248006800F021FC1FFA80FA4FF03D
:102E5000000B0AE000231A4619461C48006800F0DF
:102E600085FF0BF101001FFA80FBD345F2DB0AF16D
:102E700001001FFA80FA16480088FDF7D6FB0646C7
:102E80000F465046FDF7D1FB8046124A124BFDF724
:102E9000DAFA0022114BCDE90001FDF7D4FA3246EF
:102EA0003B46CDE90201FDF740FB0446FDF7DDFBA3
:102EB00004900B4802680B4801680498FEF705FA75
:102EC00008490860002002490880B3E72400002078
:102ED00054000020F5A10BEA5BE6943F00408F40D0
:102EE0005C0000203C0000200EB5FEF7C1FD0C4840
:102EF0000C4903220023CDE90021029080220AA17F
:102F00000D4801F01FF90D4908600846006820B11E
:102F10000BA0FFF7D1FA00F0B5FD00BFFEE70000FF
:102F2000A0150020A00500204170705461736B4310
:102F30007265617465000000390C00080000002013
:102F40003D3D3D3D3DD7BCB1B8BDF8C8EB467265CF
:102F50006552544F53213D3D3D3D3D0D0A0000005B
:102F6000F0B50B30154D20F007010024144A0FE096
:102F700003688B420BD38B4205D95E1A431847680E
:102F8000C3E9006700E04368136002C004E0021D6B
:102F900010680028ECD12046002802D1286808B12A
:102FA0000020F0BD064A07481060074A121A22F0B6
:102FB0000702C0E9002401202860D7E7F4000020C0
:102FC000F0000020041C0020001E00202DE9F0412C
:102FD00005460E461C4807681C480068001D00F0A6
:102FE00041FB50B91948006890F82C100120884026
:102FF00017490968814316480160681C38B936B121
:1030000012480168091D134800F080FB1AE07C1982
:103010000E4800684460BC4207D20C480168091D94
:103020000D48006800F058FB0CE008480168091DD5
:103030000A48006800F050FB09480068844201D249
:1030400007480460BDE8F081C8000020B4000020FB
:10305000CC000020EC1B0020BC000020B8000020A9
:10306000E400002010B5044600F05CFB2348006833
:10307000401C224908602248006840B9204804608A
:103080000846006801280DD100F058F90AE01D48F3
:10309000006838B91A480068C06AE16A884201D8F5
:1030A0001748046018480068401C1749086094F8E5
:1030B0002C1001208840154909680843134908600D
:1030C000E16A01EB8101124A02EB8100211D00F04F
:1030D0001DFB00F039FB0B48006868B10848006828
:1030E000C06AE16A884207D24FF0805009490860FF
:1030F000BFF34F8FBFF36F8F10BD0000C4000020DF
:10310000B4000020D0000020E0000020CC0000200F
:10311000381B002004ED00E070B523E000F056FD00
:103120001348006808B9012000E00020054601F0BE
:1031300041F9BDB900F0F6FA0D48C068C468201D19
:1031400000F090FA0B480068401E0A4908600A48DF
:103150000068401E0849086000F0F6FA204600F0BA
:1031600060F800BF044800680028D7D170BD000097
:10317000D81B0020C4000020C000002070B5044609
:103180000D46206C70B1216CE0680844E060616815
:10319000E068884201D32068E0602846226CE1683C
:1031A000FDF70EF870BD2DE9F04104460F461546B7
:1031B0004FF00008A66B206C40B9206860BB6068C7
:1031C00001F076F880460020606025E07DB9394640
:1031D000226CA068FCF7F4FF216CA0680844A06092
:1031E000D4E90110884217D32068A06014E0394662
:1031F000226CE068FCF7E4FF216CE068401AE060B4
:103200002168E068884203D2216C6068401AE0605F
:10321000022D01D106B1761E701CA0634046BDE8A8
:10322000F08110B5044694F8510030B9206B00F0DD
:103230009BFA204600F098FA06E094F85100012825
:1032400002D1204600F090FA10BD000000BFFFF749
:1032500063FF064800680128F9D94FF080500449FF
:103260000860BFF34F8FBFF36F8FF0E7381B00206C
:1032700004ED00E010B504464CB100206060206011
:10328000E06000231A461946204600F05DFE10BD9E
:103290002DE9F04106460D4617469846069C0DB9A5
:1032A000246000E02760E66325640121204600F0E9
:1032B0000BFEBDE8F0812DE9FF5F80460F46914689
:1032C000DDE90E6A109CA9F10100216B01EB800B76
:1032D0002BF0070B002507E0795D04F13400415520
:1032E000785D00B902E06D1C102DF5D300BF002100
:1032F00043200155052E00D30426E66266640020B3
:10330000A064201D00F0E5F904F1180000F0E1F9D7
:103310002461C6F10500A06164620020E06484F8C5
:10332000500041465846039A00F022F92060BAF155
:10333000000F01D0CAF80040BDE8FF9F10B500247F
:1033400007E004EB84010F4A02EB810000F0B4F9BE
:10335000641C052CF5D30C4800F0AEF90B4800F0C6
:10336000ABF90B4800F0A8F90A4800F0A5F90A48A3
:1033700000F0A2F9044809490860044808490860B7
:1033800010BD0000381B00209C1B0020B01B00203B
:10339000C41B0020D81B0020EC1B0020B80000201C
:1033A000BC00002010B50146164800E00068036824
:1033B0008B42FBD30246436813448B4204D14368DB
:1033C0004C682344436001460A464B681344046832
:1033D000A34211D10C4C03682468A34208D04B6867
:1033E0000468646823444B6003681B680B6005E055
:1033F000054B1B680B6001E003680B60884200D03E
:10340000016010BD9C000020A400002070B505469E
:1034100000F088F9A86B08B9012400E0002400F04E
:1034200093F9204670BD70B5054600F07BF9A86B96
:10343000E96B884201D1012400E0002400F084F906
:10344000204670BD0A490968096809B9012100E0F0
:10345000002121B14FF0FF31064A116006E0044916
:103460000968C968C868034A41681160704700006C
:10347000B8000020E400002000BFBF2080F31188C6
:10348000BFF34F8FBFF36F8F00BF00BFFEE7000099
:1034900010B5014600200A460B4C5369A34201D1E6
:1034A000012300E0002373B1084C936AA34201D1C9
:1034B000012300E0002333B9936A0BB9012300E034
:1034C000002303B1012010BDEC1B0020C41B002011
:1034D00070B5044600F026F994F9455010E0606A92
:1034E00008B9012000E0002038B904F1240000F000
:1034F00021FF18B100F010FA00E003E0681E45B2A9
:10350000002DECDC00BFFF2084F8450000F01CF922
:1035100000F008F994F9445010E0206908B901203E
:1035200000E0002048B904F1100000F003FF08B1EA
:1035300000F0F2F9681E45B200E001E0002DECDC7D
:1035400000BFFF2084F8440000F0FEF870BD0000CA
:103550000648006830B10549096801F14800896CE6
:10356000491C01600148006870470000B400002059
:10357000001F4FF080730360001F21F00103036000
:10358000001F034B036014380260203870470000AE
:10359000793400088AB055E000235A1E19462A489B
:1035A000006800F0E3FB2848006800F06FF81FFA9D
:1035B00080FA4FF0000B0AE000231A461946224811
:1035C000006800F0D3FB0BF101001FFA80FBD3452C
:1035D000F2DB0AF101001FFA80FA1C480088FDF7AF
:1035E00024F804460D465046FDF71FF8CDE90001CA
:1035F0005046FDF71AF88046154A164BFCF723FF94
:103600000646DDE90023FCF71EFF0022124BCDE940
:103610000201FCF718FF22462B46CDE90401FCF716
:1036200084FFCDE90601FDF720F808900B480268F9
:103630000B4801680898FDF748FE0949086000201A
:1036400002490880A8E7000028000020560000205A
:10365000F5A10BEA5BE6943F00408F405C00002040
:103660004000002001460A69D1E901309860D1E9A3
:10367000010358605068884201D18868506000207A
:1036800008611068401E10601068704770B50446ED
:1036900000F048F8A56B00F057F8284670BD000010
:1036A000034B0360034B0B608023136070470000E3
:1036B000F8040020F800002000F1080141604FF0FC
:1036C000FF31816000F10801C160016100210160EA
:1036D000704700210161704710B502460B685C1C01
:1036E0000CB9106907E002F1080000E04068446886
:1036F00024689C42FAD944684C604C68A160886098
:1037000041600A611468641C146010BD42684A601C
:1037100093688B60936859609160086103685B1CD3
:103720000360704700BFBF2080F31188BFF34F8F45
:10373000BFF36F8F00BF03480068401C0149086059
:10374000704700009800002006480068401E0549A8
:1037500008600846006820B9002080F3118800BF87
:1037600000BF70479800002070B506463546D6B1B8
:10377000083D2C460C4960680968084098B12068EB
:1037800088B90949606809688843606000F01EFADA
:103790000649606809680844044908602046FFF744
:1037A00001FE00F007FE70BDB0000020A800002060
:1037B00003484FF0E021486107200861704700008E
:1037C0003F19010008B501210420FEF763F810201D
:1037D000ADF8000028208DF8030069460148FDF788
:1037E0008FFD08BD0008014008B501210420FEF747
:1037F00051F82020ADF8000028208DF8030069461C
:103800000148FDF77DFD08BD0008014010B5FFF738
:10381000D9FFFFF7E9FF10BD70B50446002544B19C
:1038200000F0D4F900212046FFF7D0FB00F0C2FDE4
:1038300005463DB94FF0805003490860BFF34F8FF4
:10384000BFF36F8F70BD000004ED00E070B505465A
:10385000FFF768FF15B92748006800E028460446CE
:10386000201DFFF7FFFE78B9E06A00EB80002249D7
:1038700051F8200040B994F82C10012088401F49CD
:10388000096881431D480160A06A18B104F118005D
:10389000FFF7E8FE1A480068401C194908601548FF
:1038A0000068844209D1211D1648FFF72FFF1648F2
:1038B0000068401C1449086009E014480068401E74
:1038C000124908602046FFF7ACFCFFF7BBFDFFF78D
:1038D0003BFF0F48006858B106480068844207D192
:1038E0004FF080500B490860BFF34F8FBFF36F8FCD
:1038F00070BD0000B4000020381B0020CC00002068
:10390000E0000020D81B0020C0000020C4000020E0
:10391000D000002004ED00E001200149086070475C
:10392000D800002070B505460C46054801681831DE
:103930002846FFF7D1FE01212046FFF747FB70BD67
:10394000B400002070B505462C46002D4BD026490A
:10395000E06A0968C96A884245D2A06900F000405F
:1039600028B921480068C06AC0F10500A061E16A79
:1039700001EB81011D4A02EB81016069884201D19E
:10398000012000E0002050B3201DFFF76BFE78B946
:10399000E06A00EB8000154951F8200040B994F826
:1039A0002C100120884012490968814310480160A9
:1039B0000D480068C06AE06294F82C10012088402D
:1039C0000B49096808430A490860E16A01EB810173
:1039D000064A02EB8100211DFFF798FE03E0024832
:1039E0000068C06AE06270BDB4000020381B00208F
:1039F000CC00002070B505462C4674B3174800680B
:103A000084422AD0FFF78EFE2046FFF741FD10B317
:103A1000201DFFF727FE94F82C1001208840104944
:103A2000096808430E490860E16A01EB81010D4A0B
:103A300002EB8100211DFFF769FE0849E06A096871
:103A4000C96A884207D34FF0805007490860BFF326
:103A50004F8FBFF36F8FFFF777FE70BDB40000206C
:103A6000CC000020381B002004ED00E00349096869
:103A7000016003490968416070470000DC000020D4
:103A8000C800002010B586B000200590049003AA5D
:103A900004A905A8FFF704FE0022DDE9041013467F
:103AA000CDE90021029013A11448039A00F04AFBCB
:103AB000134908600846006808B1012400E00024AA
:103AC000012C14D100BFBF2080F31188BFF34F8FAA
:103AD000BFF36F8F00BF4FF0FF300A49086001202D
:103AE0000949086000200949086000F0A7F806B0FD
:103AF00010BD000049444C45000000004D32000854
:103B0000E8000020E4000020D0000020C8000020D1
:103B100070B50546FFF706FE15B92548006800E0B8
:103B200028460446201DFFF79DFD78B9E06A00EBAA
:103B30008000204951F8200040B994F82C10012051
:103B400088401D49096881431B480160A06A18B17B
:103B500004F11800FFF786FD211D1848FFF7D6FD78
:103B6000FFF7F2FD1648006828B1FFF7DBFDFFF70D
:103B700069FCFFF7E9FD0E480068844217D1104840
:103B8000006840B14FF080500E490860BFF34F8F7E
:103B9000BFF36F8F0BE0094800680B490968884242
:103BA00003D100200249086001E000F017F870BD61
:103BB000B4000020381B0020CC000020EC1B0020AB
:103BC000D000002004ED00E0C4000020024800689E
:103BD000401C014908607047EC0000201248006852
:103BE00018B10120114908601DE000200F4908604C
:103BF0000F480068B0FA80F0C0F11F0101EB8102AC
:103C00000C4B03EB820042685268426000F10802EC
:103C10004368934202D14268526842604268D26867
:103C2000054B1A6000BF7047EC000020D800002050
:103C3000CC000020381B0020B400002010B50A483A
:103C4000006840F47F00084908600846006840F0BA
:103C50007F400860FFF7ACFD002004490860FCF7D6
:103C600063FA002010BD000020ED00E09800002065
:103C700010B500BFBF2080F31188BFF34F8FBFF393
:103C80006F8F00BF00F086FA18B14FF080500449E2
:103C9000086000BF002080F3118800BF10BD000045
:103CA00004ED00E00FB400B5B5B037A80190C9210C
:103CB00002A8019B369AFEF70FFC0020019000231A
:103CC000421E19460848006800F050F802A907A0F3
:103CD000FEF7F2FB00231A4619460348006800F07D
:103CE00033F935B05DF814FB200000202573000087
:103CF000F8B507460D461646022033460022114607
:103D00000090384600F01AF8044604B1A563204636
:103D1000F8BD2DE9F84304460D4601274FF0000891
:103D20002B46002211460120009400F007F80646B9
:103D30003046FFF79FFA3046BDE8F8832DE9F84397
:103D400006460F4690461D46DDF820902C464CB1A5
:103D5000012084F846004B464246394630460094DE
:103D6000FFF796FA2046BDE8F88300002DE9FF47EB
:103D700082B0054689461E464FF0000A2C4600BF19
:103D8000FFF7D0FCD4F83880B8F1000F3BD0E768DB
:103D900049462046FFF7F2F9DEB9A8F10100A06319
:103DA000206810B9FFF7D4FB6060206908B90120D2
:103DB00000E0002008BB04F1100000F0BBFAE0B105
:103DC0004FF080503F490860BFF34F8FBFF36F8FB4
:103DD00013E0E760606A08B9012000E0002060B9E4
:103DE00004F1240000F0A6FA38B14FF080503549B4
:103DF0000860BFF34F8FBFF36F8FFFF7A5FC012063
:103E000006B0BDE8F087049818B9FFF79DFC0020C4
:103E1000F6E7BAF1000F04D16846FFF727FE4FF02E
:103E2000010AFFF791FCFFF7D1FEFFF77BFC94F945
:103E30004400401C10B9002084F8440094F9450067
:103E4000401C10B9002084F84500FFF77DFC04A950
:103E5000684600F049F940BB2046FFF7D7FAF0B1B9
:103E6000206830B9FFF75EFC6068FFF76BFDFFF775
:103E70006BFC04F124000499FFF754FD2046FFF782
:103E800027FB00F097FA00287FF47AAF4FF08050BC
:103E90000C490860BFF34F8FBFF36F8F70E7204668
:103EA000FFF716FB00F086FA6AE72046FFF710FBE3
:103EB00000F080FA2046FFF7A9FA0028EED0002093
:103EC0009EE7000004ED00E070B505460E462C4666
:103ED000FFF728FCD4E90F12206801FB02006060A4
:103EE0000020A0632068A060E06B401E226C216867
:103EF00000FB0210E060FF2084F8440084F84500D5
:103F00009EB9206908B9012000E00020A8B904F199
:103F1000100000F00FFA80B14FF08050094908609E
:103F2000BFF34F8FBFF36F8F07E004F11000FFF76F
:103F3000C3FB04F12400FFF7BFFBFFF705FC0120E2
:103F400070BD000004ED00E02DE9FF4383B007469B
:103F500088461D464FF000093C4600BFFFF7E2FBD4
:103F6000A06BE16B884201D3022D28D12A4641463D
:103F70002046FFF718F90646606A08B9012000E0FC
:103F8000002068B904F1240000F0D4F988B14FF0A2
:103F9000805032490860BFF34F8FBFF36F8F08E046
:103FA0003EB14FF080502D490860BFF34F8FBFF3F3
:103FB0006F8FFFF7C9FB012007B0BDE8F0830598BC
:103FC00018B9FFF7C1FB0020F6E7B9F1000F04D1E3
:103FD00001A8FFF74BFD4FF00109FFF7B5FBFFF715
:103FE000F5FDFFF79FFB94F94400401C10B9002039
:103FF00084F8440094F94500401C10B9002084F86E
:104000004500FFF7A1FB05A901A800F06DF8F0B984
:104010002046FFF708FAA0B104F110000599FFF758
:1040200081FC2046FFF754FA00F0C4F9002895D12E
:104030004FF0805009490860BFF34F8FBFF36F8F77
:104040008CE72046FFF744FA00F0B4F986E72046F3
:10405000FFF73EFA00F0AEF90020ADE704ED00E016
:104060002DE9F05F05468A4616461F462C4600BFDE
:10407000BF21EFF3118081F31188BFF34F8FBFF39E
:104080006F8F00BF8146A06BE16B884201D3022F86
:1040900020D194F945B03A4651462046FFF783F8BF
:1040A0000BF1010070B9606A08B9012000E000203E
:1040B00068B904F1240000F03DF940B13EB101209F
:1040C000306004E00BF1010040B284F845004FF08D
:1040D000010801E04FF0000800BF89F3118800BF1C
:1040E0004046BDE8F09F000070B504460D46FFF75E
:1040F00019FB124802682868401C08B9002619E01C
:104100000F4920680968884204D06068904201D84D
:1041100001260FE06068101A2968884209D22868D1
:104120006168511A401A28602046FFF79FFC00265C
:1041300000E00126FFF708FB304670BDC8000020F4
:10414000DC0000202DE9F04F85B0074688469146F7
:104150009A46DDE90EB6109CACB1A6B125462E6399
:10416000022085F85100002004A953464A46CDE9B3
:1041700000B1CDE9025041463846FFF79CF8284689
:10418000FEF770FF01E000200490049805B0BDE840
:10419000F08F00002DE9F04100273A480068002820
:1041A00063D139480068451C374805608DB93748E8
:1041B000D0F8008036480068344908603448C0F8B8
:1041C000008034480068401C32490860FFF73AF923
:1041D00000BF3148006885423BD300BF2B480068D0
:1041E000006808B9012000E0002020B14FF0FF3046
:1041F000294908602CE025480068C068C4686668E2
:10420000B54202D22448066022E0201DFFF72AFAB8
:10421000A06A18B104F11800FFF724FA94F82C10E2
:10422000012088401D49096808431C490860E16A6B
:1042300001EB81011A4A02EB8100211DFFF766FAAA
:104240001849E06A0968C96A8842C7D30127C5E7E7
:1042500000BF14480068C06A00EB8000104951F8A4
:104260002000012800D9012704E00F480068401C05
:104270000D4908600D48006800B101273846BDE8C7
:10428000F0810000EC000020C8000020B8000020F1
:10429000BC000020DC000020E4000020CC00002056
:1042A000381B0020B4000020D4000020D8000020DB
:1042B00070B505462C460026ADB3A06C401EA06428
:1042C000616CE06A88422ED0A06C60BB201DFFF7B5
:1042D000C9F978B9E06A00EB8000144951F8200070
:1042E00040B994F82C100120884011490968814395
:1042F0000F480160606CE062E06AC0F10500A061F7
:1043000094F82C100120884009490968084308499D
:104310000860E16A01EB8101044A02EB8100211D82
:10432000FFF7F4F90126304670BD0000381B00206D
:10433000CC00002070B50646F068C46804F118008F
:10434000FFF790F915480068A8B9201DFFF78AF912
:1043500094F82C100120884011490968084310493D
:104360000860E16A01EB81010E4A02EB8100211D28
:10437000FFF7CCF904E004F118010B48FFF7C6F988
:104380000A49E06A0968C96A884204D901250120FE
:104390000749086000E00025284670BDEC000020B9
:1043A000CC000020381B0020C41B0020B4000020DB
:1043B000D800002070B500240026FFF7B3F92E487E
:1043C0000068401E2C4908600846006800284FD14C
:1043D0002A48006800284BD024E02948C068C468F7
:1043E00004F11800FFF73EF9201DFFF73BF994F8A0
:1043F0002C1001208840234909680843214908609E
:10440000E16A01EB8101204A02EB8100211DFFF7E7
:104410007DF91E49E06A0968C96A884202D3012011
:104420001B4908601648006808B9012000E0002018
:104430000028D2D00CB1FFF705F81648056865B121
:1044400000BFFFF7A7FE10B10120114908606D1EE3
:10445000002DF6D100200F4908600D48006838B1E2
:10446000012630070C490860BFF34F8FBFF36F8FF1
:10447000FFF76AF9304670BDEC000020C400002050
:10448000C41B0020CC000020381B0020B4000020FA
:10449000D8000020D400002004ED00E0BC44000857
:1044A00000000020F80000000C250008B4450008BA
:1044B000F8000020082100001C2500080000000072
:1044C00000000000000000000000000000000000EC
:1044D00000000000000000000000000000000000DC
:1044E00000000000000000000000000000000000CC
:1044F00000000000000000000000000000000000BC
:1045000000000000000000000000000000000000AB
:1045100000000000000000000AD7233C00A24A046B
:104520000000000000000000010203040607080963
:1045300000000000000000000000FF000000FF007D
:104540000000000102030401020304060708090237
:1045500004060800AAAAAAAA0000000000000000A1
:10456000000000000000000000000000000000004B
:10457000000000000000000000000000000000003B
:10458000000000000000000000000000000000002B
:10459000000000000000000000000000000000001B
:1045A000000000000000000000000000000000000B
:0445B0000000000007
:040000050800019D51
:00000001FF
